:100000000C94B3000C9487020C94D4000C94D4008C
:100010000C94D4000C94E3020C94BE020C94D40013
:100020000C94D4000C94D4000C94D4000C94D40000
:100030000C94D4000C94D4000C94D4000C94D400F0
:100040000C94D4000C94D4000C94D4000C94D400E0
:100050000C94D4000C94D4000C94D4000C94D400D0
:100060000C94D4000C94D4000C94D4000C94D400C0
:100070000C94D4000C94D4000C94D4000C94D400B0
:100080000C94D4000C94D4000C94D4000C94D400A0
:100090000C94D4000C94D4000C94D4000C94D40090
:1000A0000C94D4000C94D4000C94D4000C94D40080
:1000B0000C94D4000C94D4000C94D4000C94D40070
:1000C0000C94D4000C94D4000C94D4000C94D40060
:1000D0000C94D4000C94D4000C94D4000C94D40050
:1000E0000C94D40007634236B79BD8A71A396856D8
:1000F00018AEBAAB558C1D3CB7CC5763BD6DEDFD4A
:10010000753EF6177231BF000000803F0800000006
:10011000BE922449123EABAAAA2ABECDCCCC4C3EFC
:1001200000000080BEABAAAAAA3E00000000BF00EB
:100130000000803F0000000000084178D3BB4387E7
:10014000D1133D190E3CC3BD4282AD2B3E68EC82FB
:1001500076BED98FE1A93E4C80EFFFBE01C4FF7F80
:100160003F000000000011241FBECFEFD1E2DEBF30
:10017000CDBF00E00CBF12E0A0E0B2E0ECEAFCE191
:1001800000E00BBF02C007900D92A833B107D9F76A
:1001900012E0A8E3B2E001C01D92A437B107E1F775
:1001A0000E94AA090C94540E0C94000086E69EE06E
:1001B0000197F1F700004098419880E388B9429A8E
:1001C000EFEFF7E43197F1F700C000004298E6E660
:1001D000FEE03197F1F700004098419888B9429AC3
:1001E000EFEFF7E43197F1F700C000004298E6E640
:1001F000FEE03197F1F700004098419888B9429AA3
:100200008FEF97E40197F1F700C000004298E6E60F
:10021000FEE03197F1F700004098419880E288B9FC
:10022000429A8FEF97E40197F1F700C000004298DF
:10023000089598B19F7098B998B1282F207F922B7C
:1002400098B940984198429AEFEFF7E43197F1F767
:1002500000C00000429898B19F7098B998B18295FB
:10026000807F892B88B940984198429A8FEF97E414
:100270000197F1F700C00000429808950E94D6004F
:1002800086E69EE00197F1F7000088E20E941901DE
:1002900081E00E94190186E00E9419018EE00E940F
:1002A000190180E80E941901089598B19F7098B9CA
:1002B00098B1282F207F922B98B9409A4198429A62
:1002C000EFEFF7E43197F1F700C00000429898B1E2
:1002D0009F7098B998B18295807F892B88B9409A90
:1002E0004198429A8FEF97E40197F1F700C0000020
:1002F0004298089580E80E9419010895CF93DF93F2
:10030000EC018881882331F021960E945501899162
:100310008823D9F7DF91CF910895823079F0833027
:1003200018F48130C9F405C0833069F08430A1F439
:100330000FC0862F81580E9419010895862F81547D
:100340000E9419010895862F8D560E941901089563
:10035000862F8D520E94190108950F931F93CF93FA
:10036000DF938A01E901882311F0662319F40E94C2
:100370007A0102C00E948D01C530D10571F4C80117
:1003800060E177E20E94400ECB01C0969093570245
:10039000809356020E94550103C0C430D105B9F4C0
:1003A000C80168EE73E00E94400ECB0170935A02C0
:1003B000609359026AE070E00E94400EC0969093EC
:1003C0007102809370020E94550181E001C080E0BB
:1003D000C330D10511F08130B1F4C80164E670E09A
:1003E0000E94400ECB0170935A02609359026AE05A
:1003F00070E00E94400EC09690936D0280936C0254
:100400000E94550181E0C230D10511F08130B1F474
:100410002AE030E0C801B9010E94400ECB01709380
:100420005A0260935902B9010E94400EC0969093FF
:100430006902809368020E94550181E0C130D105B4
:1004400011F0813061F4C8016AE070E00E94400E52
:10045000C09690936F0280936E020E945501C63041
:10046000D1051CF085E40E945501DF91CF911F91C9
:100470000F910895EAE0F1E0808187608083EBE0EE
:10048000F1E0808187608083089587B1876F87B9A5
:1004900088B1807888B908958AB18E6F8AB9589AE0
:1004A000089581B18F6081B982B1807F82B9EAE01D
:1004B000F1E0808188618083EBE0F1E080818861F8
:1004C000808308956C98749A08956D98759A08952C
:1004D00010BA11BA109207011092080108950E94F3
:1004E00045020E9451020E9462020E9465020E941F
:1004F00068020E944C020E943A020895F894E9E6CC
:10050000F0E0808182608083E89A789408951F9259
:100510000F920FB60F9211248F939F93AF93BF93B7
:1005200080914A0290914B02A0914C02B0914D02F1
:100530000196A11DB11D80934A0290934B02A09396
:100540004C02B0934D02BF91AF919F918F910F904C
:100550000FBE0F901F901895F894EAE6F0E08081A6
:1005600082608083EC9A78940895F894EAE6F0E04B
:10057000808188608083ED9A789408951F920F920D
:100580000FB60F9211248F939F93AF93BF938091D7
:10059000420290914302A0914402B091450201961B
:1005A000A11DB11D8093420290934302A093440287
:1005B000B0934502BF91AF919F918F910F900FBE65
:1005C0000F901F9018951F920F920FB60F92112443
:1005D0008F939F93AF93BF93809146029091470270
:1005E000A0914802B09149020196A11DB11D8093CE
:1005F000460290934702A0934802B0934902BF91EC
:10060000AF919F918F910F900FBE0F901F901895F3
:10061000EAE7F0E0108210927B0080E280937C0099
:1006200080E880BF86E880830895883018F098E0DD
:1006300090937B008770806280937C00EAE7F0E013
:10064000808180648083808184FFFDCF80917900E8
:10065000EAE7F0E090819061908310927B0008952A
:100660000F931F93682F70E080E090E00E94850B4D
:100670002FEE39EC43E95FE30E94760CB62FA72FEB
:10068000382F292F60E070E080E89FE3422F0B2F86
:100690001A2F232F342FA90198010E94EC0A2AE96E
:1006A00039EF4EE255E40E94130C20E030E040E2C6
:1006B00051E40E94130C0E94540B882777FD80950B
:1006C000982F0E94870B0E94540B862F972F23E0B0
:1006D0008132920710F080E293E01F910F9108950C
:1006E00092B1907F8F70982B92B9089586E00E9406
:1006F0007003089589E00E947003089585E00E94C8
:10070000700308958AE00E947003089584E00E94B7
:100710007003089582E00E947003089581E00E94B2
:100720007003089588E00E947003089580E00E949D
:1007300070030895E1E2F1E010828FEF80932501CC
:1007400091E0909324011092290180932801109246
:100750002B0180932A0110922D0180932C0189EAAC
:10076000809320018BE0808308958093280160931B
:100770002A010895BC0180E090E00E94850B28E4E6
:1007800031EE42E850E40E94EC0A0E94590BDC0171
:10079000CB01A0E0B0E0109242021092430210920E
:1007A00044021092450210924602109247021092A3
:1007B00048021092490240914202509143026091D6
:1007C000440270914502481759076A077B0768F48D
:1007D000409146025091470260914802709149024F
:1007E000481759076A077B0730F30E94960308955C
:1007F000CF92DF92EF92FF92CF93DF93C62FBC018F
:1008000080E090E00E94850B25EE30ED4AEA50E44E
:100810000E94EC0A0E94590BC62ED72EE82EF92E04
:10082000109242021092430210924402109245022A
:10083000109246021092470210924802109249020A
:10084000DC2FD9518091420290914302A091440241
:10085000B091450240914602509147026091480292
:1008600070914902481759076A077B0728F48C2FB3
:100870006D2F0E94B50319C040914202509143026E
:100880006091440270914502809146029091470226
:10089000A0914802B0914902481759076A077B079F
:1008A00020F48D2F6C2F0E94B5038091420290910D
:1008B0004302A0914402B0914502C816D906EA0647
:1008C000FB0668F48091460290914702A09148028D
:1008D000B0914902C816D906EA06FB0628F08C2F0B
:1008E0006C2F0E94B503AECF0E949603DF91CF918B
:1008F000FF90EF90DF90CF9008951F93CF93DF93F9
:10090000EC01162F0E947603CE01612F0E94F8039E
:10091000DF91CF911F910895CF93DF93EC010E9457
:100920007A0360913802CE010E94F803DF91CF91E3
:100930000895CF93DF93EC010E947E03CE010E94C5
:10094000BA03DF91CF910895CF93DF93EC010E941A
:100950008203CE010E94BA03DF91CF910895CF9315
:10096000DF93EC010E948603CE01880F991F0E943D
:10097000BA03DF91CF910895CF93DF93EC010E94EA
:100980008A03CE01880F991F0E94BA03DF91CF918D
:100990000895CF93DF93EC010E948E03CE01880F60
:1009A000991F0E94BA03DF91CF910895CF93DF93EF
:1009B000EC010E949203CE01880F991F0E94BA0396
:1009C000DF91CF910895CF92DF92EF92FF921F9324
:1009D000CF93DF93EC0110924202109243021092E7
:1009E0004402109245021092460210924702109261
:1009F00048021092490282E00E9415038131D0F032
:100A00000E94960381E00E94190181E061E00E944A
:100A10008D0180E092E00E947E018FEF9FE7A6E1CA
:100A200081509040A040E1F700C0000081E00E94AA
:100A30001901F6C0BE0180E090E00E94850B28E419
:100A400031EE42E850E40E94EC0A0E94590B6B011F
:100A5000EE24FF240E9496038FEF9FE7A6E18150CA
:100A60009040A040E1F700C000000E94820381E0B6
:100A70000E94190181E061E00E948D018CE092E00A
:100A80000E947E01C0E0D1E010E082E00E941503E8
:100A90008131E0F00E9496030E94960381E00E945B
:100AA000190181E061E00E948D0180E092E00E94E6
:100AB0007E018FEF9FE7A6E181509040A040E1F7D3
:100AC00000C0000081E00E941901AAC08091460286
:100AD00090914702A0914802B09149028C159D0562
:100AE000AE05BF0500F18091420290914302A091B2
:100AF0004402B09145028C159D05AE05BF0598F0E6
:100B000082B18A3081F4CC2371F40E9496038FEF76
:100B10009FE7A6E181509040A040E1F700C00000AF
:100B20000E947E03CD2FD701C601880F991FAA1FEF
:100B3000BB1F8C0D9D1DAE1DBF1D409146025091E7
:100B400047026091480270914902481759076A07A5
:100B50007B07E8F0409142025091430260914402C9
:100B600070914502481759076A077B0780F082B1E8
:100B7000853069F40E9496038FEF9FE7A6E18150CC
:100B80009040A040E1F700C000000E948203D7011E
:100B9000C601880F991FAA1FBB1F880F991FAA1F84
:100BA000BB1F4091460250914702609148027091EC
:100BB0004902481759076A077B0708F466CF409136
:100BC00042025091430260914402709145024817DD
:100BD00059076A077B0708F458CF82B18A3009F0B9
:100BE00054CFC13009F051CF10924202109243020B
:100BF000109244021092450210924602109247024F
:100C0000109248021092490282E090E0A0E0B0E029
:100C1000C80ED91EEA1EFB1E0E948203C12F35CFCB
:100C2000DF91CF911F91FF90EF90DF90CF900895CB
:100C30001F93CF93DF93C82F182F1C5ED82FDE5140
:100C400083E00E9415038093410282E00E94150315
:100C50008093400281E00E94150380933F028091BF
:100C60004002813148F180914102813128F1809127
:100C70003F02813108F10E94960380E060E00E940B
:100C8000B50381E00E94190181E061E00E948D01BD
:100C90008CE192E00E947E018FEF9FE7A6E18150F8
:100CA0009040A040E1F700C0000081E00E941901DF
:100CB000DF91CF911F91089580914002813130F0F2
:100CC0000E9476038C2F6C2F0E94B5038091410205
:100CD000803150F480914002803130F40E947603DC
:100CE000812F6D2F0E94B50380913F02803108F063
:100CF000A7CF80914002803108F0A2CF0E947603F6
:100D00008D2F612F0E94B5039BCFCF92DF92EF9280
:100D1000FF92CF93DF93D62FBC0180E090E00E943A
:100D2000850B25EE30ED4AEA50E40E94EC0A0E9461
:100D3000590BC62ED72EE82EF92E10924202109291
:100D40004302109244021092450210924602109201
:100D500047021092480210924902CD2FC451D25E30
:100D600089E00E9415030E94300390933E02809315
:100D70003D0240913D0250913E0281E061E023E05E
:100D800030E00E94AD0140916A0250916B0282E016
:100D900061E023E030E00E94AD0180914202909139
:100DA0004302A0914402B0914502C816D906EA0652
:100DB000FB0688F58091460290914702A091480277
:100DC000B0914902C816D906EA06FB0620F50E9432
:100DD000960380E060E00E94B50381E00E94190163
:100DE00081E061E00E948D0182E292E00E947E013A
:100DF0008FEF9FE7A6E181509040A040E1F700C04F
:100E0000000081E00E941901DF91CF91FF90EF90E7
:100E1000DF90CF90089520913D0230913E02809165
:100E20006A0290916B028217930730F40E94760356
:100E30008C2F6D2F0E94B50320913D0230913E0210
:100E400080916A0290916B022817390708F088CFC9
:100E50000E9476038D2F6C2F0E94B50381CFCF9215
:100E6000DF92EF92FF92CF93DF93D62FBC0180E009
:100E700090E00E94850B25EE30ED4AEA50E40E9496
:100E8000EC0A0E94590BC62ED72EE82EF92E10928E
:100E900042021092430210924402109245021092B4
:100EA0004602109247021092480210924902CD2F3A
:100EB000C25ED4518DE00E9415030E9430039093CE
:100EC0003C0280933B0240913B0250913C0281E006
:100ED00061E023E030E00E94AD0140917202509148
:100EE000730282E061E023E030E00E94AD01809176
:100EF000420290914302A0914402B0914502C8166B
:100F0000D906EA06FB0688F58091460290914702D1
:100F1000A0914802B0914902C816D906EA06FB061C
:100F200020F50E94960380E060E00E94B50381E016
:100F30000E94190181E061E00E948D0182E292E04D
:100F40000E947E018FEF9FE7A6E181509040A04074
:100F5000E1F700C0000081E00E941901DF91CF910C
:100F6000FF90EF90DF90CF90089520913B02309159
:100F70003C0280917202909173028217930730F4C1
:100F80000E9476038C2F6D2F0E94B50320913B02A7
:100F900030913C02809172029091730228173907B8
:100FA00008F088CF0E9476038D2F6C2F0E94B50326
:100FB00081CF5E985F9808955E9A5F9A08955E98D3
:100FC0005F9A08955E9A5F9808955C9A5D9A089575
:100FD0000F931F930E94D90710924A0210924B025E
:100FE00010924C0210924D028CEC9CE10197F1F7AB
:100FF00000C0000080914A0290914B02A0914C02E7
:10100000B0914D028093600290936102A0936202BE
:10101000B09363020E94DC0710924A0210924B02C6
:1010200010924C0210924D028CEC9CE10197F1F76A
:1010300000C0000080914A0290914B02A0914C02A6
:10104000B0914D0280935C0290935D02A0935E028A
:10105000B0935F020E94DF0710924A0210924B0287
:1010600010924C0210924D028CEC9CE10197F1F72A
:1010700000C0000080914A0290914B02A0914C0266
:10108000B0914D0280934E0290934F02A093500274
:10109000B09351020E94E20710924A0210924B0252
:1010A00010924C0210924D028CEC9CE10197F1F7EA
:1010B00000C0000080914A0290914B02A0914C0226
:1010C000B0914D028093520290935302A093540228
:1010D000B09355020091600210916102209162026A
:1010E0003091630281E061E0A80125E030E00E94D8
:1010F000AD0100915C0210915D0220915E02309181
:101100005F0281E069E0A80125E030E00E94AD01C6
:1011100000914E0210914F022091500230915102E5
:1011200082E061E0A80125E030E00E94AD0100917D
:10113000520210915302209154023091550282E0E4
:1011400069E0A80125E030E00E94AD018FEF9FE843
:101150000197F1F700C0000081E00E9419011F9182
:101160000F910895EBE0F1E08081876080838091AA
:101170005C0290915D02A0915E02B0915F028C31A1
:101180009105A105B105F0F480914E0290914F02B6
:10119000A0915002B091510284329105A105B10590
:1011A00088F48091600290916102A0916202B091F6
:1011B000630283329105A105B10520F48081877017
:1011C0008083B3C08091600290916102A09162021D
:1011D000B09163028093640290936502A0936602CB
:1011E000B09367024091640250916502609166027B
:1011F0007091670280915C0290915D02A0915E0205
:10120000B0915F02481759076A077B0780F4809105
:101210005C0290915D02A0915E02B0915F028093AA
:10122000640290936502A0936602B09367024091B6
:10123000640250916502609166027091670280912C
:101240004E0290914F02A0915002B0915102481766
:1012500059076A077B0780F480914E0290914F02F4
:10126000A0915002B0915102809364029093650264
:10127000A0936602B09367024091640250916502A8
:1012800060916602709167028091600290916102A4
:10129000A0916202B0916302481759076A077B0761
:1012A00031F4EBE0F1E080818370808335C04091C0
:1012B00064025091650260916602709167028091AC
:1012C0005C0290915D02A0915E02B0915F024817AE
:1012D00059076A077B0731F4EBE0F1E08081867003
:1012E00080831AC040916402509165026091660249
:1012F0007091670280914E0290914F02A09150022E
:10130000B0915102481759076A077B0729F4EBE0AF
:10131000F1E08081857080838FEF9FEFACE2815098
:101320009040A040E1F700C00000EBE0F1E08081D8
:10133000877080830895F8940E946F020E94AC0227
:101340000E94B5020E947E020E9408030E949A0336
:1013500078940895EF92FF920F931F93CF93DF93AA
:101360000E949B090E94D6000E943E010E94E50750
:10137000C0E0D0E00FE212E00F2EF7E2EF2EF2E035
:10138000FF2EF02D8FEF9FEFACE281509040A040F8
:10139000E1F700C00000CE01880F991FF801E80FA7
:1013A000F91F2081318130936B0220936A028E0DE8
:1013B0009F1DDC018D919C9190937302809372022A
:1013C00084E091E066E90E947D040E9496038FEF1D
:1013D0009FE7A6E181509040A040E1F700C00000E7
:1013E00084E664E60E94B50388E590E00E949904D3
:1013F0000E9496038FEF9FE7A6E181509040A040A6
:10140000E1F700C000000E94E8070E94B20884E6ED
:1014100064E60E94B50384E590E00E94A4040E9463
:1014200096038FEF9FE7A6E181509040A040E1F73F
:1014300000C000008CE291E068EC0E947D048AEF1D
:1014400090E062E80E942F070E9496038FEF9FE7CB
:10145000A6E181509040A040E1F700C0000084E682
:1014600064E60E94B50381E490E00E94AF040E940C
:1014700096038FEF9FE7A6E181509040A040E1F7EF
:1014800000C000000E94E8070E94B20884E664E6FB
:101490000E94B50381E490E00E94D6040E94960366
:1014A0008FEF9FE7A6E181509040A040E1F700C098
:1014B000000084E664E60E94B5038EEA90E00E9494
:1014C000A4040E9496038FEF9FE7A6E1815090400D
:1014D000A040E1F700C0000086E391E062E80E94CE
:1014E00085060E9496038FEF9FE7A6E1815090400A
:1014F000A040E1F700C000000E9496038FEF9FE735
:10150000A6E181509040A040E1F700C0000084E6D1
:1015100064E60E94B5038AE090E00E94E3040E9422
:1015200096038FEF9FE7A6E181509040A040E1F73E
:1015300000C0000084E60E9418060E9496038FEF08
:101540009FEFACE281509040A040E1F700C0000066
:101550008CE390E064E60E947D040E9496038FEF86
:101560009FE7A6E181509040A040E1F700C0000055
:1015700084E664E60E94B50384E690E00E94990444
:101580000E9496038FEF9FE7A6E181509040A04014
:10159000E1F700C0000084E664E60E94B5038EE136
:1015A00090E00E94E3040E9496038FEF9FEFACE26D
:1015B00081509040A040E1F700C000002196C43067
:1015C000D10509F0DFCE80E090E0DF91CF911F914F
:1015D0000F91FF90EF9008950CD0EBC0E3D040F056
:1015E000DAD030F021F45F3F19F0CCC0511115C1B1
:1015F000CFC0F0D098F39923C9F35523B1F3951BCD
:10160000550BBB27AA2762177307840738F09F5F23
:101610005F4F220F331F441FAA1FA9F333D00E2E92
:101620003AF0E0E830D091505040E695001CCAF7FF
:1016300029D0FE2F27D0660F771F881FBB1F2617C4
:1016400037074807AB07B0E809F0BB0B802DBF0197
:10165000FF2793585F4F2AF09E3F510568F092C0D4
:10166000DCC05F3FECF3983EDCF386957795679599
:10167000B795F7959F5FC9F7880F911D9695879548
:1016800097F90895E1E0660F771F881FBB1F621767
:1016900073078407BA0720F0621B730B840BBA0B25
:1016A000EE1F88F7E095089504D06894B111B5C095
:1016B000089598D088F09F5790F0B92F9927B75187
:1016C000A0F0D1F0660F771F881F991F1AF0BA9506
:1016D000C9F712C0B13081F09FD0B1E008959CC02D
:1016E000672F782F8827B85F39F0B93FCCF38695FC
:1016F00077956795B395D9F73EF490958095709559
:1017000061957F4F8F4F9F4F0895E89409C097FBD5
:101710003EF490958095709561957F4F8F4F9F4FC8
:101720009923A9F0F92F96E9BB279395F69587950C
:1017300077956795B795F111F8CFFAF4BB0F11F4CF
:1017400060FF1BC06F5F7F4F8F4F9F4F16C0882376
:1017500011F096E911C0772321F09EE8872F762FAC
:1017600005C0662371F096E8862F70E060E02AF0ED
:101770009A95660F771F881FDAF7880F96958795D9
:1017800097F9089597F99F6780E870E060E0089501
:101790009FEF80EC089500240A9416161706180689
:1017A0000906089500240A94121613061406050665
:1017B0000895092E0394000C11F4882352F0BB0FF6
:1017C00040F4BF2B11F460FF04C06F5F7F4F8F4F59
:1017D0009F4F089557FD9058440F551F59F05F3F94
:1017E00071F04795880F97FB991F61F09F3F79F043
:1017F00087950895121613061406551FF2CF4695C5
:10180000F1DF08C0161617061806991FF1CF869546
:101810007105610508940895E894BB27662777272A
:10182000CB0197F908950BD0C4CFB5DF28F0BADF0C
:1018300018F0952309F0A6CFABCF1124EECFCADF65
:10184000A0F3959FD1F3950F50E0551F629FF001D3
:10185000729FBB27F00DB11D639FAA27F00DB11D2C
:10186000AA1F649F6627B00DA11D661F829F2227B5
:10187000B00DA11D621F739FB00DA11D621F839F3C
:10188000A00D611D221F749F3327A00D611D231F12
:10189000849F600D211D822F762F6A2F11249F5760
:1018A00050408AF0E1F088234AF0EE0FFF1FBB1F83
:1018B000661F771F881F91505040A9F79E3F510522
:1018C00070F060CFAACF5F3FECF3983EDCF38695D3
:1018D00077956795B795F795E7959F5FC1F7FE2BCD
:1018E000880F911D9695879597F90895FA01EE0F47
:1018F000FF1F30962105310599F16115710561F4DD
:101900008038BFE39B0749F168949038810561F006
:101910008038BFEF9B0741F0992342F5FF3FE10577
:101920003105210511F1E8940894E795D901AA231E
:1019300029F4AB2FBE2FF85FD0F310C0FF5F70F417
:10194000A695E0F7F73950F019F0FF3A38F49F7791
:101950009F930CD00F9007FC905808953EF018CF3D
:1019600060E070E080E89FE308954FE79F775F9322
:101970004F933F932F939ED02F913F914F915F9123
:1019800052DF05C019F40EF0FDCE46CF01CF2ADF9D
:10199000C8F39638C0F707F80F92E8942BE33AEAB9
:1019A00048EB5FE74EDF0F920F920F924DB75EB795
:1019B0000F92C0D0E4EEF0E016D04F915F91EF911E
:1019C000FF91E595EE1FFF1F49F0FE57E0684427A1
:1019D000EE0F441FFA95E1F74195550B32D00F9069
:1019E00007FE26C00895DF93CF931F930F93FF92B6
:1019F000EF92DF927B018C01689405C0DA2EEF0133
:101A00001EDFFE01E894A5912591359145915591F0
:101A1000AEF3EF01D4D0FE019701A801DA9479F773
:101A2000DF90EF90FF900F911F91CF91DF9108957C
:101A30009B01AC0160E070E080E89FE3CDCDA2CED9
:101A400011C1D0DEE8F39923D9F3940F511DBBF3F4
:101A50009150504094F059F0882332F0660F771F70
:101A6000881F91505040C1F79E3F510544F7880FA1
:101A7000911D9695879597F908955F3FACF0983E34
:101A80009CF0BB27869577956795B79508F4B1606C
:101A90009395C1F7BB0F58F711F460FFE8CF6F5F64
:101AA0007F4F8F4F9F4FE3CFB8CE0EF0DBC070CE8D
:101AB000689468CE97DEC8F39923D1F3C6F3DF9319
:101AC000CF931F930F93FF92C92FDD2788232AF00E
:101AD0002197660F771F881FDAF720E030E040E893
:101AE0005FEB9FE3883920F0803E30F021968F77BE
:101AF00055D0ECE0F1E003C051D0E9E3F1E073DF51
:101B00008B01BE01EC01FB2E6F5771097595771F94
:101B1000880B990BFCDD28E132E741E35FE38FDEC0
:101B2000AF2D9801AE01FF900F911F91CF91DF91E2
:101B300046D03FCEFA01DC01AA0FBB1F9B01AC01CE
:101B4000BF5728F422273327442750781FC0B751A6
:101B500088F4AB2F0024469537952795011CA39553
:101B6000D2F3002069F0220F331F441FB395DAF33C
:101B70000DD013C061307105A0E88A07B94630F472
:101B80009B01AC016627772788279078309621F053
:101B9000208331834283538308955058BB27AA275B
:101BA0000ED007CEF8DD30F0FDDD20F031F49F3FA0
:101BB00011F41EF4EDCD0EF4E095E7FBE3CDE92F33
:101BC00009DE80F3BA17620773078407950718F0D8
:101BD00071F49EF521CE0EF4E0950B2EBA2FA02DB8
:101BE0000B01B90190010C01CA01A0011124FF27CA
:101BF000591B99F0593F50F4503E68F11A16F040C5
:101C0000A22F232F342F4427585FF3CF46953795C3
:101C10002795A795F0405395C9F77EF41F16BA0B88
:101C2000620B730B840BBAF09150A1F0FF0FBB1F36
:101C3000661F771F881FC2F70EC0BA0F621F731F7F
:101C4000841F48F4879577956795B795F7959E3FDC
:101C500008F0B3CF9395880F08F09927EE0F97956A
:101C6000879508959F3F31F0915020F4879577959F
:101C70006795B795880F911D9695879597F9089563
:101C8000AA1BBB1B51E107C0AA1FBB1FA617B707A2
:101C900010F0A61BB70B881F991F5A95A9F78095BE
:0C1CA0009095BC01CD010895F894FFCF91
:101CAC00426C61636B20466F756E640053656172A4
:101CBC006368696E6720426C61636B004272656198
:101CCC006B004F766572002101160147013401C586
:081CDC0000DA00EE00F7000041
:00000001FF
